{
  "_format": "hh-sol-artifact-1",
  "contractName": "SimpleSavingPlan",
  "sourceName": "contracts/SimpleSavingPlan.sol",
  "abi": [
    {
      "inputs": [],
      "stateMutability": "nonpayable",
      "type": "constructor"
    },
    {
      "inputs": [
        {
          "internalType": "address",
          "name": "owner",
          "type": "address"
        }
      ],
      "name": "OwnableInvalidOwner",
      "type": "error"
    },
    {
      "inputs": [
        {
          "internalType": "address",
          "name": "account",
          "type": "address"
        }
      ],
      "name": "OwnableUnauthorizedAccount",
      "type": "error"
    },
    {
      "inputs": [],
      "name": "ReentrancyGuardReentrantCall",
      "type": "error"
    },
    {
      "anonymous": false,
      "inputs": [
        {
          "indexed": true,
          "internalType": "uint256",
          "name": "planId",
          "type": "uint256"
        },
        {
          "indexed": true,
          "internalType": "address",
          "name": "owner",
          "type": "address"
        },
        {
          "indexed": false,
          "internalType": "uint256",
          "name": "savedAmount",
          "type": "uint256"
        },
        {
          "indexed": false,
          "internalType": "uint256",
          "name": "rewardBonus",
          "type": "uint256"
        },
        {
          "indexed": false,
          "internalType": "uint256",
          "name": "rewardPoolShare",
          "type": "uint256"
        }
      ],
      "name": "Claimed",
      "type": "event"
    },
    {
      "anonymous": false,
      "inputs": [
        {
          "indexed": true,
          "internalType": "uint256",
          "name": "planId",
          "type": "uint256"
        },
        {
          "indexed": true,
          "internalType": "address",
          "name": "payer",
          "type": "address"
        },
        {
          "indexed": false,
          "internalType": "uint256",
          "name": "currentDay",
          "type": "uint256"
        }
      ],
      "name": "DailyPaid",
      "type": "event"
    },
    {
      "anonymous": false,
      "inputs": [
        {
          "indexed": true,
          "internalType": "address",
          "name": "previousOwner",
          "type": "address"
        },
        {
          "indexed": true,
          "internalType": "address",
          "name": "newOwner",
          "type": "address"
        }
      ],
      "name": "OwnershipTransferred",
      "type": "event"
    },
    {
      "anonymous": false,
      "inputs": [
        {
          "indexed": true,
          "internalType": "uint256",
          "name": "planId",
          "type": "uint256"
        },
        {
          "indexed": false,
          "internalType": "uint256",
          "name": "amount",
          "type": "uint256"
        },
        {
          "indexed": false,
          "internalType": "uint256",
          "name": "remainingStake",
          "type": "uint256"
        }
      ],
      "name": "PenaltyDeducted",
      "type": "event"
    },
    {
      "anonymous": false,
      "inputs": [
        {
          "indexed": true,
          "internalType": "uint256",
          "name": "planId",
          "type": "uint256"
        }
      ],
      "name": "PlanCompleted",
      "type": "event"
    },
    {
      "anonymous": false,
      "inputs": [
        {
          "indexed": true,
          "internalType": "uint256",
          "name": "planId",
          "type": "uint256"
        },
        {
          "indexed": true,
          "internalType": "address",
          "name": "owner",
          "type": "address"
        },
        {
          "indexed": false,
          "internalType": "address",
          "name": "token",
          "type": "address"
        },
        {
          "indexed": false,
          "internalType": "uint256",
          "name": "dailyAmount",
          "type": "uint256"
        },
        {
          "indexed": false,
          "internalType": "uint256",
          "name": "totalDays",
          "type": "uint256"
        },
        {
          "indexed": false,
          "internalType": "uint256",
          "name": "penaltyStake",
          "type": "uint256"
        }
      ],
      "name": "PlanCreated",
      "type": "event"
    },
    {
      "anonymous": false,
      "inputs": [
        {
          "indexed": true,
          "internalType": "uint256",
          "name": "planId",
          "type": "uint256"
        }
      ],
      "name": "PlanFailed",
      "type": "event"
    },
    {
      "anonymous": false,
      "inputs": [
        {
          "indexed": true,
          "internalType": "address",
          "name": "token",
          "type": "address"
        },
        {
          "indexed": false,
          "internalType": "uint256",
          "name": "amount",
          "type": "uint256"
        }
      ],
      "name": "RewardPoolContributed",
      "type": "event"
    },
    {
      "anonymous": false,
      "inputs": [
        {
          "indexed": true,
          "internalType": "uint256",
          "name": "planId",
          "type": "uint256"
        },
        {
          "indexed": true,
          "internalType": "address",
          "name": "recipient",
          "type": "address"
        },
        {
          "indexed": false,
          "internalType": "uint256",
          "name": "amount",
          "type": "uint256"
        }
      ],
      "name": "RewardPoolDistributed",
      "type": "event"
    },
    {
      "inputs": [],
      "name": "GRACE_PERIOD",
      "outputs": [
        {
          "internalType": "uint256",
          "name": "",
          "type": "uint256"
        }
      ],
      "stateMutability": "view",
      "type": "function"
    },
    {
      "inputs": [],
      "name": "REWARD_PERCENTAGE",
      "outputs": [
        {
          "internalType": "uint256",
          "name": "",
          "type": "uint256"
        }
      ],
      "stateMutability": "view",
      "type": "function"
    },
    {
      "inputs": [],
      "name": "REWARD_PERCENTAGE_BPS",
      "outputs": [
        {
          "internalType": "uint256",
          "name": "",
          "type": "uint256"
        }
      ],
      "stateMutability": "view",
      "type": "function"
    },
    {
      "inputs": [
        {
          "internalType": "uint256",
          "name": "planId",
          "type": "uint256"
        }
      ],
      "name": "checkAndDeductPenalty",
      "outputs": [],
      "stateMutability": "nonpayable",
      "type": "function"
    },
    {
      "inputs": [
        {
          "internalType": "address",
          "name": "token",
          "type": "address"
        },
        {
          "internalType": "uint256",
          "name": "dailyAmount",
          "type": "uint256"
        },
        {
          "internalType": "uint256",
          "name": "totalDays",
          "type": "uint256"
        },
        {
          "internalType": "uint256",
          "name": "penaltyStake",
          "type": "uint256"
        }
      ],
      "name": "createPlan",
      "outputs": [
        {
          "internalType": "uint256",
          "name": "",
          "type": "uint256"
        }
      ],
      "stateMutability": "nonpayable",
      "type": "function"
    },
    {
      "inputs": [
        {
          "internalType": "address",
          "name": "token",
          "type": "address"
        },
        {
          "internalType": "address",
          "name": "to",
          "type": "address"
        }
      ],
      "name": "emergencyWithdrawRewardPool",
      "outputs": [],
      "stateMutability": "nonpayable",
      "type": "function"
    },
    {
      "inputs": [
        {
          "internalType": "uint256",
          "name": "planId",
          "type": "uint256"
        }
      ],
      "name": "getPlan",
      "outputs": [
        {
          "components": [
            {
              "internalType": "address",
              "name": "user",
              "type": "address"
            },
            {
              "internalType": "address",
              "name": "token",
              "type": "address"
            },
            {
              "internalType": "uint256",
              "name": "dailyAmount",
              "type": "uint256"
            },
            {
              "internalType": "uint256",
              "name": "totalDays",
              "type": "uint256"
            },
            {
              "internalType": "uint256",
              "name": "penaltyStake",
              "type": "uint256"
            },
            {
              "internalType": "uint256",
              "name": "currentDay",
              "type": "uint256"
            },
            {
              "internalType": "uint256",
              "name": "missedDays",
              "type": "uint256"
            },
            {
              "internalType": "bool",
              "name": "isActive",
              "type": "bool"
            },
            {
              "internalType": "bool",
              "name": "isCompleted",
              "type": "bool"
            },
            {
              "internalType": "bool",
              "name": "isFailed",
              "type": "bool"
            },
            {
              "internalType": "uint256",
              "name": "startTime",
              "type": "uint256"
            },
            {
              "internalType": "uint256",
              "name": "lastPaidAt",
              "type": "uint256"
            },
            {
              "internalType": "uint256",
              "name": "firstMissTime",
              "type": "uint256"
            },
            {
              "internalType": "bool",
              "name": "hasUsedGracePeriod",
              "type": "bool"
            }
          ],
          "internalType": "struct SimpleSavingPlan.Plan",
          "name": "",
          "type": "tuple"
        }
      ],
      "stateMutability": "view",
      "type": "function"
    },
    {
      "inputs": [
        {
          "internalType": "address",
          "name": "token",
          "type": "address"
        }
      ],
      "name": "getRewardPoolBalance",
      "outputs": [
        {
          "internalType": "uint256",
          "name": "",
          "type": "uint256"
        }
      ],
      "stateMutability": "view",
      "type": "function"
    },
    {
      "inputs": [
        {
          "internalType": "uint256",
          "name": "",
          "type": "uint256"
        }
      ],
      "name": "hasClaimedReward",
      "outputs": [
        {
          "internalType": "bool",
          "name": "",
          "type": "bool"
        }
      ],
      "stateMutability": "view",
      "type": "function"
    },
    {
      "inputs": [
        {
          "internalType": "uint256",
          "name": "planId",
          "type": "uint256"
        }
      ],
      "name": "markFailed",
      "outputs": [],
      "stateMutability": "nonpayable",
      "type": "function"
    },
    {
      "inputs": [
        {
          "internalType": "uint256",
          "name": "planId",
          "type": "uint256"
        },
        {
          "internalType": "uint256",
          "name": "allowAfterSeconds",
          "type": "uint256"
        }
      ],
      "name": "markFailedNoPayments",
      "outputs": [],
      "stateMutability": "nonpayable",
      "type": "function"
    },
    {
      "inputs": [],
      "name": "owner",
      "outputs": [
        {
          "internalType": "address",
          "name": "",
          "type": "address"
        }
      ],
      "stateMutability": "view",
      "type": "function"
    },
    {
      "inputs": [
        {
          "internalType": "uint256",
          "name": "planId",
          "type": "uint256"
        }
      ],
      "name": "payDaily",
      "outputs": [],
      "stateMutability": "nonpayable",
      "type": "function"
    },
    {
      "inputs": [],
      "name": "planCounter",
      "outputs": [
        {
          "internalType": "uint256",
          "name": "",
          "type": "uint256"
        }
      ],
      "stateMutability": "view",
      "type": "function"
    },
    {
      "inputs": [
        {
          "internalType": "uint256",
          "name": "",
          "type": "uint256"
        }
      ],
      "name": "plans",
      "outputs": [
        {
          "internalType": "address",
          "name": "user",
          "type": "address"
        },
        {
          "internalType": "address",
          "name": "token",
          "type": "address"
        },
        {
          "internalType": "uint256",
          "name": "dailyAmount",
          "type": "uint256"
        },
        {
          "internalType": "uint256",
          "name": "totalDays",
          "type": "uint256"
        },
        {
          "internalType": "uint256",
          "name": "penaltyStake",
          "type": "uint256"
        },
        {
          "internalType": "uint256",
          "name": "currentDay",
          "type": "uint256"
        },
        {
          "internalType": "uint256",
          "name": "missedDays",
          "type": "uint256"
        },
        {
          "internalType": "bool",
          "name": "isActive",
          "type": "bool"
        },
        {
          "internalType": "bool",
          "name": "isCompleted",
          "type": "bool"
        },
        {
          "internalType": "bool",
          "name": "isFailed",
          "type": "bool"
        },
        {
          "internalType": "uint256",
          "name": "startTime",
          "type": "uint256"
        },
        {
          "internalType": "uint256",
          "name": "lastPaidAt",
          "type": "uint256"
        },
        {
          "internalType": "uint256",
          "name": "firstMissTime",
          "type": "uint256"
        },
        {
          "internalType": "bool",
          "name": "hasUsedGracePeriod",
          "type": "bool"
        }
      ],
      "stateMutability": "view",
      "type": "function"
    },
    {
      "inputs": [],
      "name": "renounceOwnership",
      "outputs": [],
      "stateMutability": "nonpayable",
      "type": "function"
    },
    {
      "inputs": [
        {
          "internalType": "address",
          "name": "",
          "type": "address"
        }
      ],
      "name": "rewardPool",
      "outputs": [
        {
          "internalType": "uint256",
          "name": "",
          "type": "uint256"
        }
      ],
      "stateMutability": "view",
      "type": "function"
    },
    {
      "inputs": [
        {
          "internalType": "address",
          "name": "newOwner",
          "type": "address"
        }
      ],
      "name": "transferOwnership",
      "outputs": [],
      "stateMutability": "nonpayable",
      "type": "function"
    },
    {
      "inputs": [
        {
          "internalType": "uint256",
          "name": "planId",
          "type": "uint256"
        }
      ],
      "name": "withdraw",
      "outputs": [],
      "stateMutability": "nonpayable",
      "type": "function"
    }
  ],
  "bytecode": "0x608080604052346078576001600055331560625760018054336001600160a01b0319821681179092556001600160a01b03167f8be0079c531659141344cd1fd0a4f28419497f9722a3daafe3b4186f6b6457e0600080a361172d908161007e8239f35b631e4fbdf760e01b600052600060045260246000fd5b600080fdfe6080604052600436101561001257600080fd5b60003560e01c80630339e9fa146110375780631bcda19814610bf857806326cd527414610e435780632e1a7d4d14610c8f578063715018a614610c3257806385e710b014610bf85780638da5cb5b14610bcf57806397c2eb8d146109af578063a36a38ed14610991578063aa9f04a7146107ce578063abfc4493146106d0578063b1620616146105f4578063c1a287e2146105d6578063d7c72ff41461036a578063daab21581461034d578063ed1cbf391461031c578063f2fde38b14610292578063f3634a321461010e5763fc72b1ed146100ed57600080fd5b3461010957600036600319011261010957602060405160148152f35b600080fd5b346101095760203660031901126101095760043561012a611511565b806000526003602052604060002060078101805460ff811680610284575b80610275575b61015790611488565b60098301546101678115156114c6565b6202a300810180911161025f574211156102295762ff00ff191662010000179055600481018054806101c1575b837fb3b56676fa3c5e163a546415e8c830fddd664c5e02a5c34d7ad8f8292f87d6c4600080a26001600055005b6001600093019060018060a01b03825416845260046020526101e86040852091825461147b565b905560018060a01b039054167fc8b1cd545919a25e3c6ccfef8cd44d97376832801c6a7c7bbefdb3cee824edd860208354604051908152a255818080610194565b60405162461bcd60e51b815260206004820152600e60248201526d7374696c6c2d696e2d677261636560901b6044820152606490fd5b634e487b7160e01b600052601160045260246000fd5b50600881901c60ff161561014e565b5060ff8160101c1615610148565b34610109576020366003190112610109576102ab611399565b6102b36116ce565b6001600160a01b0316801561030657600180546001600160a01b0319811683179091556001600160a01b03167f8be0079c531659141344cd1fd0a4f28419497f9722a3daafe3b4186f6b6457e0600080a3005b631e4fbdf760e01b600052600060045260246000fd5b34610109576020366003190112610109576004356000526005602052602060ff604060002054166040519015158152f35b346101095760003660031901126101095760206040516107d08152f35b3461010957602036600319011261010957600435610386611511565b806000526003602052604060002060078101906103b5825460ff811690816105c6575b816105b7575b50611488565b620151806103d260098301546103cc8115156114c6565b42611504565b116103df575b6001600055005b600a81018054156105af575b600b8201805460ff81168015610598575b610409575b5050506103d8565b60ff19166001179055546202a300810190811061025f576000814211600014610590575061043b620151809142611504565b04905b8161044b575b8080610401565b600281015491600a830292808404600a149015171561025f57606461047282600495611468565b049081151580610583575b6104ce575b5050015415610493575b8080610444565b805462ff00ff1916620100001790557fb3b56676fa3c5e163a546415e8c830fddd664c5e02a5c34d7ad8f8292f87d6c4600080a2808061048c565b60207fc8b1cd545919a25e3c6ccfef8cd44d97376832801c6a7c7bbefdb3cee824edd89185850190610501858354611504565b82556105126006870191825461147b565b9055877f989026686a5f30eda28de2971042bd2cdc03fb86f7c2d99023b191d4ef79093c6040600188019360018060a01b038554166000528986528160002061055c89825461147b565b90555481519088825286820152a2546040519384526001600160a01b031692a28480610482565b508184840154101561047d565b90509061043e565b5082546202a300810180911161025f5742116103fc565b4281556103eb565b60ff915060081c1615856103af565b905060ff8160101c1615906103a9565b346101095760003660031901126101095760206040516202a3008152f35b346101095760203660031901126101095760043560005260036020526101c0604060002060018060a01b038154169060018060a01b03600182015416906002810154600382015460ff6004840154600585015460068601549060078701549260088801549560098901549786600b600a8c01549b0154169a6040519c8d5260208d015260408c015260608b015260808a015260a089015260c0880152818116151560e0880152818160081c16151561010088015260101c16151561012086015261014085015261016084015261018083015215156101a0820152f35b34610109576040366003190112610109576106e9611399565b602435906001600160a01b038216808303610109576107066116ce565b15610797576001600160a01b039081166000818152600460208181526040808420805490859055905163a9059cbb60e01b815296909516918601919091526024850193909352839160449183915af1801561078b5761076157005b6107829060203d602011610784575b61077a81836113e2565b810190611404565b005b503d610770565b6040513d6000823e3d90fd5b60405162461bcd60e51b815260206004820152600f60248201526e696e76616c69642d6164647265737360881b6044820152606490fd5b34610109576040366003190112610109576004356024356107ed611511565b816000526003602052604060002090600782019081549060ff821680610983575b80610974575b61081d90611488565b600984015461094057600884015490610836818361147b565b4211918215610925575b5050156108f55762ff00ff19166201000017905560048101805491908261088e57837fb3b56676fa3c5e163a546415e8c830fddd664c5e02a5c34d7ad8f8292f87d6c4600080a26001600055005b6001600092019260018060a01b03845416835260046020526108b56040842091825461147b565b90555560018060a01b039054167fc8b1cd545919a25e3c6ccfef8cd44d97376832801c6a7c7bbefdb3cee824edd8602060405160008152a2818080610194565b60405162461bcd60e51b81526020600482015260086024820152673a37b796b9b7b7b760c11b6044820152606490fd5b15915081610936575b508580610840565b905042118561092e565b60405162461bcd60e51b815260206004820152600c60248201526b6861732d7061796d656e747360a01b6044820152606490fd5b50600882901c60ff1615610814565b5060ff8260101c161561080e565b34610109576000366003190112610109576020600254604051908152f35b34610109576020366003190112610109576004356109cb611511565b806000526003602052604060002090600782016109f8815460ff811690816105c657816105b75750611488565b6005830192835490600381019182541115610b9257610a2160018060a01b03825416331461142b565b600181015460028201546040516323b872dd60e01b8152336004820152306024820152604481019190915290602090829060649082906000906001600160a01b03165af1801561078b57610b75575b5060088101805415610b6c575b50600681018054151580610b5f575b610b1f575b508454946001860180961161025f5785905560094291015554831015610ae6575b506040519182527ff5b8e2bab5a95b463cf9a873712699419a38a624fddd6f1b8007f3d2d45f07a460203393a36001600055005b805461ffff1916610100179055807fd3abf0be8d6454c0f049177f495a98b16bdc964d8271ea4d2212a17e4de6ccac600080a282610ab2565b60ff600b830154168015610b44575b15610a9157600090556000600a82015585610a91565b50600a8201546202a300810180911161025f57421115610b2e565b5060098201541515610a8c565b42905585610a7d565b610b8d9060203d6020116107845761077a81836113e2565b610a70565b60405162461bcd60e51b8152602060048201526015602482015274706c616e2d616c72656164792d636f6d706c65746560581b6044820152606490fd5b34610109576000366003190112610109576001546040516001600160a01b039091168152602090f35b34610109576020366003190112610109576001600160a01b03610c19611399565b1660005260046020526020604060002054604051908152f35b3461010957600036600319011261010957610c4b6116ce565b600180546001600160a01b031981169091556000906001600160a01b03167f8be0079c531659141344cd1fd0a4f28419497f9722a3daafe3b4186f6b6457e08280a3005b3461010957602036600319011261010957600435610cab611511565b806000526003602052604060002090610cce60018060a01b03835416331461142b565b600782019160ff835460081c1615610e0957610cf36002820154600383015490611468565b926107d084028481046107d0148515171561025f576020610d9f61271060009304948594600182019085610d478b610d42610d3a8d339060018060a01b0389541690611533565b9b8c9261147b565b61147b565b816005610d5a600488019384549061147b565b96015555805461ff00191690555460405163a9059cbb60e01b81523360048201526024810192909252909384926001600160a01b039092169183919082906044820190565b03925af1801561078b57610dec575b50604051938452602084015260408301527f528937b330082d892a98d4e428ab2dcca7844b51d227a1c0ae67f0b5261acbd960603393a36001600055005b610e049060203d6020116107845761077a81836113e2565b610dae565b60405162461bcd60e51b81526020600482015260126024820152711c1b185b8b5b9bdd0b58dbdb5c1b195d195960721b6044820152606490fd5b3461010957602036600319011261010957604051610e60816113af565b60008152602081016000905260408101600090526060810160009052608081016000905260a081016000905260c081016000905260e08101600090526101008101600090526101208101600090526101408101600090526101608101600090526101808101600090526101a0016000905260043560005260036020526040600020604051610eed816113af565b80600160a01b6001900383541692838252600160a01b6001900360018201541693602083019485526002820154604084019081526003830154906060850191825260048401549160808601928352600585015460a0870190815260068601549060c0880191825260078701549460e089019360ff8716151585526101008a01958760081c60ff16151587526101208b019760101c60ff161515885260088a0154986101408c01998a5260098b01549a6101608d019b8c52600a8101549c610180019c8d52600b015460ff169c6101a0019c15158d526040519d8e918252600160a01b6001900390511690602001525160408d01525160608c01525160808b01525160a08a01525160c089015251151560e08801525115156101008701525115156101208601525161014085015251610160840152516101808301525115156101a08201526101c090f35b3461010957608036600319011261010957611050611399565b602435906044359060643590611064611511565b82156113665783156113315781156112fb576001600160a01b03169182156112c6576040516323b872dd60e01b8152336004820152306024820152604481018390526020816064816000885af1801561078b576112a9575b506002546110c99061141c565b80600255604051906110da826113af565b338252602082019185835260408101878152606082018581526080830187815260a08401906000825260c08501916000835260e0860192600184526101008701916000835261012088019360008552610140890196600088526101608a019860008a526101808b019a60008c526101a081019c60008e52600052600360205260406000209d8e91600160a01b6001900390600160a01b60019003905116166bffffffffffffffffffffffff60a01b835416178255600160a01b600190039051169060010190600160a01b60019003166bffffffffffffffffffffffff60a01b8254161790555160028d01555160038c01555160048b01555160058a015551600689015560078801925115156111fb90849060ff801983541691151516179055565b51151582549060081b61ff00169061ff00191617825551151581549060101b62ff0000169062ff0000191617905551600885015551600984015551600a83015551151590600b0190611258919060ff801983541691151516179055565b6002549360405193845260208401526040830152606082015281339160807febe8faacda26f3794e66a5bb47309bc3d2ca1350d36c8d0b71d2cbd2c272204191a36001600055604051908152602090f35b6112c19060203d6020116107845761077a81836113e2565b6110bc565b60405162461bcd60e51b815260206004820152600d60248201526c34b73b30b634b216ba37b5b2b760991b6044820152606490fd5b60405162461bcd60e51b815260206004820152600e60248201526d070656e616c74795374616b653e360941b6044820152606490fd5b60405162461bcd60e51b815260206004820152600d60248201526c06461696c79416d6f756e743e3609c1b6044820152606490fd5b60405162461bcd60e51b815260206004820152600b60248201526a0746f74616c446179733e360ac1b6044820152606490fd5b600435906001600160a01b038216820361010957565b6101c0810190811067ffffffffffffffff8211176113cc57604052565b634e487b7160e01b600052604160045260246000fd5b90601f8019910116810190811067ffffffffffffffff8211176113cc57604052565b90816020910312610109575180151581036101095790565b600019811461025f5760010190565b1561143257565b60405162461bcd60e51b815260206004820152600e60248201526d3737ba16b83630b716b7bbb732b960911b6044820152606490fd5b8181029291811591840414171561025f57565b9190820180921161025f57565b1561148f57565b60405162461bcd60e51b815260206004820152600f60248201526e706c616e2d6e6f742d61637469766560881b6044820152606490fd5b156114cd57565b60405162461bcd60e51b815260206004820152600f60248201526e1b9bcb5c185e5b595b9d1ccb5e595d608a1b6044820152606490fd5b9190820391821161025f57565b600260005414611522576002600055565b633ee5aeb560e01b60005260046000fd5b919060018060a01b0316918260005260046020526040600020541580156116b6575b6116ae5760006001600254905b81811115611626575050801561161e575b801561161557600084815260046020526040902054908104939084116115fe575b600052600460205260406000206115ac848254611504565b90558060005260056020526040600020600160ff198254161790557fbe1565ea8ea95ef4a1050f85850f2d48cc0d45c817f939126906165172ae357c60206040519385855260018060a01b031693a390565b809350600052600460205260406000205492611594565b50505050600090565b506001611573565b6000818152600360205260409020600101546001600160a01b0316861480611690575b80611677575b611662575b61165d9061141c565b611562565b9161166f61165d9161141c565b929050611654565b5080600052600560205260ff604060002054161561164f565b5080600052600360205260ff60076040600020015460081c16611649565b505050600090565b5080600052600560205260ff60406000205416611555565b6001546001600160a01b031633036116e257565b63118cdaa760e01b6000523360045260246000fdfea2646970667358221220928cb6039ecfefa4f36d5913550e94bcd8c8d77ce8971ffc6c655dd56ebcfcd664736f6c634300081c0033",
  "linkReferences": {},
  "deployedLinkReferences": {}
}